{
  "address": "0xe7f1725E7734CE288F8367e1Bb143E90bb3F0512",
  "abi": [
    {
      "inputs": [
        {
          "internalType": "address",
          "name": "priceFeedAddress",
          "type": "address"
        }
      ],
      "stateMutability": "nonpayable",
      "type": "constructor"
    },
    {
      "inputs": [],
      "name": "NotOwner",
      "type": "error"
    },
    {
      "stateMutability": "payable",
      "type": "fallback"
    },
    {
      "inputs": [],
      "name": "MINIMUM_USD",
      "outputs": [
        {
          "internalType": "uint256",
          "name": "",
          "type": "uint256"
        }
      ],
      "stateMutability": "view",
      "type": "function"
    },
    {
      "inputs": [
        {
          "internalType": "address",
          "name": "",
          "type": "address"
        }
      ],
      "name": "addressToAmountFuned",
      "outputs": [
        {
          "internalType": "uint256",
          "name": "",
          "type": "uint256"
        }
      ],
      "stateMutability": "view",
      "type": "function"
    },
    {
      "inputs": [],
      "name": "fund",
      "outputs": [],
      "stateMutability": "payable",
      "type": "function"
    },
    {
      "inputs": [
        {
          "internalType": "uint256",
          "name": "",
          "type": "uint256"
        }
      ],
      "name": "funders",
      "outputs": [
        {
          "internalType": "address",
          "name": "",
          "type": "address"
        }
      ],
      "stateMutability": "view",
      "type": "function"
    },
    {
      "inputs": [],
      "name": "i_owner",
      "outputs": [
        {
          "internalType": "address",
          "name": "",
          "type": "address"
        }
      ],
      "stateMutability": "view",
      "type": "function"
    },
    {
      "inputs": [],
      "name": "priceFeed",
      "outputs": [
        {
          "internalType": "contract AggregatorV3Interface",
          "name": "",
          "type": "address"
        }
      ],
      "stateMutability": "view",
      "type": "function"
    },
    {
      "inputs": [],
      "name": "withdraw",
      "outputs": [],
      "stateMutability": "nonpayable",
      "type": "function"
    },
    {
      "stateMutability": "payable",
      "type": "receive"
    }
  ],
  "transactionHash": "0xf79f3af1d5f204127ae1a29a3987fc001de8d65a5b20ae852ff5600e51c33bff",
  "args": [
    "0x5FbDB2315678afecb367f032d93F642f64180aa3"
  ],
  "numDeployments": 1,
  "solcInputHash": "31f206c955d93fdd00097cf6961e2e38",
  "bytecode": "0x60a060405234801561001057600080fd5b5060405162000fed38038062000fed83398181016040528101906100349190610115565b3373ffffffffffffffffffffffffffffffffffffffff1660808173ffffffffffffffffffffffffffffffffffffffff1660601b8152505080600260006101000a81548173ffffffffffffffffffffffffffffffffffffffff021916908373ffffffffffffffffffffffffffffffffffffffff16021790555050610142565b600080fd5b600073ffffffffffffffffffffffffffffffffffffffff82169050919050565b60006100e2826100b7565b9050919050565b6100f2816100d7565b81146100fd57600080fd5b50565b60008151905061010f816100e9565b92915050565b60006020828403121561012b5761012a6100b2565b5b600061013984828501610100565b91505092915050565b60805160601c610e8562000168600039600081816102e501526105760152610e856000f3fe6080604052600436106100745760003560e01c8063741bef1a1161004e578063741bef1a1461010c578063b60d428814610137578063dba6335f14610141578063dc0d3dff1461016c57610083565b80633ccfd60b1461008d57806345e92b4d146100a45780636b69a592146100e157610083565b36610083576100816101a9565b005b61008b6101a9565b005b34801561009957600080fd5b506100a26102e3565b005b3480156100b057600080fd5b506100cb60048036038101906100c691906107bd565b610529565b6040516100d89190610803565b60405180910390f35b3480156100ed57600080fd5b506100f6610541565b6040516101039190610803565b60405180910390f35b34801561011857600080fd5b5061012161054e565b60405161012e919061087d565b60405180910390f35b61013f6101a9565b005b34801561014d57600080fd5b50610156610574565b60405161016391906108a7565b60405180910390f35b34801561017857600080fd5b50610193600480360381019061018e91906108ee565b610598565b6040516101a091906108a7565b60405180910390f35b6801158e460913d000006101e8600260009054906101000a900473ffffffffffffffffffffffffffffffffffffffff16346105d790919063ffffffff16565b1015610229576040517f08c379a000000000000000000000000000000000000000000000000000000000815260040161022090610978565b60405180910390fd5b6001339080600181540180825580915050600190039060005260206000200160009091909190916101000a81548173ffffffffffffffffffffffffffffffffffffffff021916908373ffffffffffffffffffffffffffffffffffffffff160217905550346000803373ffffffffffffffffffffffffffffffffffffffff1673ffffffffffffffffffffffffffffffffffffffff16815260200190815260200160002060008282546102da91906109c7565b92505081905550565b7f000000000000000000000000000000000000000000000000000000000000000073ffffffffffffffffffffffffffffffffffffffff163373ffffffffffffffffffffffffffffffffffffffff1614610368576040517f30cd747100000000000000000000000000000000000000000000000000000000815260040160405180910390fd5b6000600180549050905060005b818110156104185760006001828154811061039357610392610a1d565b5b9060005260206000200160009054906101000a900473ffffffffffffffffffffffffffffffffffffffff16905060008060008373ffffffffffffffffffffffffffffffffffffffff1673ffffffffffffffffffffffffffffffffffffffff1681526020019081526020016000208190555050808061041090610a4c565b915050610375565b50600067ffffffffffffffff81111561043457610433610a95565b5b6040519080825280602002602001820160405280156104625781602001602082028036833780820191505090505b50600190805190602001906104789291906106b3565b5060003373ffffffffffffffffffffffffffffffffffffffff164760405161049f90610af5565b60006040518083038185875af1925050503d80600081146104dc576040519150601f19603f3d011682016040523d82523d6000602084013e6104e1565b606091505b5050905080610525576040517f08c379a000000000000000000000000000000000000000000000000000000000815260040161051c90610b56565b60405180910390fd5b5050565b60006020528060005260406000206000915090505481565b6801158e460913d0000081565b600260009054906101000a900473ffffffffffffffffffffffffffffffffffffffff1681565b7f000000000000000000000000000000000000000000000000000000000000000081565b600181815481106105a857600080fd5b906000526020600020016000915054906101000a900473ffffffffffffffffffffffffffffffffffffffff1681565b6000806105e383610613565b90506000670de0b6b3a764000085836105fc9190610b76565b6106069190610bff565b9050809250505092915050565b6000808273ffffffffffffffffffffffffffffffffffffffff1663feaf968c6040518163ffffffff1660e01b815260040160a06040518083038186803b15801561065c57600080fd5b505afa158015610670573d6000803e3d6000fd5b505050506040513d601f19601f820116820180604052508101906106949190610cbd565b5050509150506402540be400816106ab9190610d38565b915050919050565b82805482825590600052602060002090810192821561072c579160200282015b8281111561072b5782518260006101000a81548173ffffffffffffffffffffffffffffffffffffffff021916908373ffffffffffffffffffffffffffffffffffffffff160217905550916020019190600101906106d3565b5b509050610739919061073d565b5090565b5b8082111561075657600081600090555060010161073e565b5090565b600080fd5b600073ffffffffffffffffffffffffffffffffffffffff82169050919050565b600061078a8261075f565b9050919050565b61079a8161077f565b81146107a557600080fd5b50565b6000813590506107b781610791565b92915050565b6000602082840312156107d3576107d261075a565b5b60006107e1848285016107a8565b91505092915050565b6000819050919050565b6107fd816107ea565b82525050565b600060208201905061081860008301846107f4565b92915050565b6000819050919050565b600061084361083e6108398461075f565b61081e565b61075f565b9050919050565b600061085582610828565b9050919050565b60006108678261084a565b9050919050565b6108778161085c565b82525050565b6000602082019050610892600083018461086e565b92915050565b6108a18161077f565b82525050565b60006020820190506108bc6000830184610898565b92915050565b6108cb816107ea565b81146108d657600080fd5b50565b6000813590506108e8816108c2565b92915050565b6000602082840312156109045761090361075a565b5b6000610912848285016108d9565b91505092915050565b600082825260208201905092915050565b7f4469646e27742073656e6420656e6f7567680000000000000000000000000000600082015250565b600061096260128361091b565b915061096d8261092c565b602082019050919050565b6000602082019050818103600083015261099181610955565b9050919050565b7f4e487b7100000000000000000000000000000000000000000000000000000000600052601160045260246000fd5b60006109d2826107ea565b91506109dd836107ea565b9250827fffffffffffffffffffffffffffffffffffffffffffffffffffffffffffffffff03821115610a1257610a11610998565b5b828201905092915050565b7f4e487b7100000000000000000000000000000000000000000000000000000000600052603260045260246000fd5b6000610a57826107ea565b91507fffffffffffffffffffffffffffffffffffffffffffffffffffffffffffffffff821415610a8a57610a89610998565b5b600182019050919050565b7f4e487b7100000000000000000000000000000000000000000000000000000000600052604160045260246000fd5b600081905092915050565b50565b6000610adf600083610ac4565b9150610aea82610acf565b600082019050919050565b6000610b0082610ad2565b9150819050919050565b7f43616c6c206661696c6564000000000000000000000000000000000000000000600082015250565b6000610b40600b8361091b565b9150610b4b82610b0a565b602082019050919050565b60006020820190508181036000830152610b6f81610b33565b9050919050565b6000610b81826107ea565b9150610b8c836107ea565b9250817fffffffffffffffffffffffffffffffffffffffffffffffffffffffffffffffff0483118215151615610bc557610bc4610998565b5b828202905092915050565b7f4e487b7100000000000000000000000000000000000000000000000000000000600052601260045260246000fd5b6000610c0a826107ea565b9150610c15836107ea565b925082610c2557610c24610bd0565b5b828204905092915050565b600069ffffffffffffffffffff82169050919050565b610c4f81610c30565b8114610c5a57600080fd5b50565b600081519050610c6c81610c46565b92915050565b6000819050919050565b610c8581610c72565b8114610c9057600080fd5b50565b600081519050610ca281610c7c565b92915050565b600081519050610cb7816108c2565b92915050565b600080600080600060a08688031215610cd957610cd861075a565b5b6000610ce788828901610c5d565b9550506020610cf888828901610c93565b9450506040610d0988828901610ca8565b9350506060610d1a88828901610ca8565b9250506080610d2b88828901610c5d565b9150509295509295909350565b6000610d4382610c72565b9150610d4e83610c72565b9250827f7fffffffffffffffffffffffffffffffffffffffffffffffffffffffffffffff0482116000841360008413161615610d8d57610d8c610998565b5b817f80000000000000000000000000000000000000000000000000000000000000000583126000841260008413161615610dca57610dc9610998565b5b827f80000000000000000000000000000000000000000000000000000000000000000582126000841360008412161615610e0757610e06610998565b5b827f7fffffffffffffffffffffffffffffffffffffffffffffffffffffffffffffff0582126000841260008412161615610e4457610e43610998565b5b82820290509291505056fea264697066735822122080651d63bda9673a4711f2c6fa82a2e2e6578c999264bbadf13a7d6dab0d670c64736f6c63430008080033",
  "devdoc": {
    "kind": "dev",
    "methods": {},
    "version": 1
  },
  "userdoc": {
    "kind": "user",
    "methods": {},
    "version": 1
  },
  "storageLayout": {
    "storage": [
      {
        "astId": 62,
        "contract": "contracts/FundMe.sol:FundMe",
        "label": "addressToAmountFuned",
        "offset": 0,
        "slot": "0",
        "type": "t_mapping(t_address,t_uint256)"
      },
      {
        "astId": 65,
        "contract": "contracts/FundMe.sol:FundMe",
        "label": "funders",
        "offset": 0,
        "slot": "1",
        "type": "t_array(t_address)dyn_storage"
      },
      {
        "astId": 70,
        "contract": "contracts/FundMe.sol:FundMe",
        "label": "priceFeed",
        "offset": 0,
        "slot": "2",
        "type": "t_contract(AggregatorV3Interface)45"
      }
    ],
    "types": {
      "t_address": {
        "encoding": "inplace",
        "label": "address",
        "numberOfBytes": "20"
      },
      "t_array(t_address)dyn_storage": {
        "base": "t_address",
        "encoding": "dynamic_array",
        "label": "address[]",
        "numberOfBytes": "32"
      },
      "t_contract(AggregatorV3Interface)45": {
        "encoding": "inplace",
        "label": "contract AggregatorV3Interface",
        "numberOfBytes": "20"
      },
      "t_mapping(t_address,t_uint256)": {
        "encoding": "mapping",
        "key": "t_address",
        "label": "mapping(address => uint256)",
        "numberOfBytes": "32",
        "value": "t_uint256"
      },
      "t_uint256": {
        "encoding": "inplace",
        "label": "uint256",
        "numberOfBytes": "32"
      }
    }
  }
}