{
  "address": "0x322b1e2fB450F25B4f1fb20fE63c9aAD1FC326Bd",
  "abi": [
    {
      "inputs": [
        {
          "internalType": "address",
          "name": "priceFeedAddress",
          "type": "address"
        }
      ],
      "stateMutability": "nonpayable",
      "type": "constructor"
    },
    {
      "inputs": [],
      "name": "NotOwner",
      "type": "error"
    },
    {
      "stateMutability": "payable",
      "type": "fallback"
    },
    {
      "inputs": [],
      "name": "MINIMUM_USD",
      "outputs": [
        {
          "internalType": "uint256",
          "name": "",
          "type": "uint256"
        }
      ],
      "stateMutability": "view",
      "type": "function"
    },
    {
      "inputs": [
        {
          "internalType": "address",
          "name": "",
          "type": "address"
        }
      ],
      "name": "addressToAmountFuned",
      "outputs": [
        {
          "internalType": "uint256",
          "name": "",
          "type": "uint256"
        }
      ],
      "stateMutability": "view",
      "type": "function"
    },
    {
      "inputs": [],
      "name": "fund",
      "outputs": [],
      "stateMutability": "payable",
      "type": "function"
    },
    {
      "inputs": [
        {
          "internalType": "uint256",
          "name": "",
          "type": "uint256"
        }
      ],
      "name": "funders",
      "outputs": [
        {
          "internalType": "address",
          "name": "",
          "type": "address"
        }
      ],
      "stateMutability": "view",
      "type": "function"
    },
    {
      "inputs": [],
      "name": "iowner",
      "outputs": [
        {
          "internalType": "address",
          "name": "",
          "type": "address"
        }
      ],
      "stateMutability": "view",
      "type": "function"
    },
    {
      "inputs": [],
      "name": "number",
      "outputs": [
        {
          "internalType": "uint256",
          "name": "",
          "type": "uint256"
        }
      ],
      "stateMutability": "view",
      "type": "function"
    },
    {
      "inputs": [],
      "name": "priceFeed",
      "outputs": [
        {
          "internalType": "contract AggregatorV3Interface",
          "name": "",
          "type": "address"
        }
      ],
      "stateMutability": "view",
      "type": "function"
    },
    {
      "inputs": [],
      "name": "withdraw",
      "outputs": [],
      "stateMutability": "nonpayable",
      "type": "function"
    },
    {
      "stateMutability": "payable",
      "type": "receive"
    }
  ],
  "transactionHash": "0x445d65b550c752e7f76d547ca903d9ec6e871a1ba0268a2bf9966b54cd57af3b",
  "args": [
    "0x694AA1769357215DE4FAC081bf1f309aDC325306"
  ],
  "numDeployments": 6,
  "solcInputHash": "7f9c2a0be3bd72fc1ed47ee9c9b85f8e",
  "bytecode": "0x60a060405234801561001057600080fd5b50604051620010293803806200102983398181016040528101906100349190610115565b3373ffffffffffffffffffffffffffffffffffffffff1660808173ffffffffffffffffffffffffffffffffffffffff1660601b8152505080600360006101000a81548173ffffffffffffffffffffffffffffffffffffffff021916908373ffffffffffffffffffffffffffffffffffffffff16021790555050610142565b600080fd5b600073ffffffffffffffffffffffffffffffffffffffff82169050919050565b60006100e2826100b7565b9050919050565b6100f2816100d7565b81146100fd57600080fd5b50565b60008151905061010f816100e9565b92915050565b60006020828403121561012b5761012a6100b2565b5b600061013984828501610100565b91505092915050565b60805160601c610ec1620001686000396000818161031b01526105ac0152610ec16000f3fe60806040526004361061007f5760003560e01c806375fb15d01161004e57806375fb15d0146101425780638381f58a1461016d578063b60d428814610198578063dc0d3dff146101a25761008e565b80633ccfd60b1461009857806345e92b4d146100af5780636b69a592146100ec578063741bef1a146101175761008e565b3661008e5761008c6101df565b005b6100966101df565b005b3480156100a457600080fd5b506100ad610319565b005b3480156100bb57600080fd5b506100d660048036038101906100d191906107f9565b61055f565b6040516100e3919061083f565b60405180910390f35b3480156100f857600080fd5b50610101610577565b60405161010e919061083f565b60405180910390f35b34801561012357600080fd5b5061012c610584565b60405161013991906108b9565b60405180910390f35b34801561014e57600080fd5b506101576105aa565b60405161016491906108e3565b60405180910390f35b34801561017957600080fd5b506101826105ce565b60405161018f919061083f565b60405180910390f35b6101a06101df565b005b3480156101ae57600080fd5b506101c960048036038101906101c4919061092a565b6105d4565b6040516101d691906108e3565b60405180910390f35b6801158e460913d0000061021e600360009054906101000a900473ffffffffffffffffffffffffffffffffffffffff163461061390919063ffffffff16565b101561025f576040517f08c379a0000000000000000000000000000000000000000000000000000000008152600401610256906109b4565b60405180910390fd5b6002339080600181540180825580915050600190039060005260206000200160009091909190916101000a81548173ffffffffffffffffffffffffffffffffffffffff021916908373ffffffffffffffffffffffffffffffffffffffff160217905550346000803373ffffffffffffffffffffffffffffffffffffffff1673ffffffffffffffffffffffffffffffffffffffff16815260200190815260200160002060008282546103109190610a03565b92505081905550565b7f000000000000000000000000000000000000000000000000000000000000000073ffffffffffffffffffffffffffffffffffffffff163373ffffffffffffffffffffffffffffffffffffffff161461039e576040517f30cd747100000000000000000000000000000000000000000000000000000000815260040160405180910390fd5b6000600280549050905060005b8181101561044e576000600282815481106103c9576103c8610a59565b5b9060005260206000200160009054906101000a900473ffffffffffffffffffffffffffffffffffffffff16905060008060008373ffffffffffffffffffffffffffffffffffffffff1673ffffffffffffffffffffffffffffffffffffffff1681526020019081526020016000208190555050808061044690610a88565b9150506103ab565b50600067ffffffffffffffff81111561046a57610469610ad1565b5b6040519080825280602002602001820160405280156104985781602001602082028036833780820191505090505b50600290805190602001906104ae9291906106ef565b5060003373ffffffffffffffffffffffffffffffffffffffff16476040516104d590610b31565b60006040518083038185875af1925050503d8060008114610512576040519150601f19603f3d011682016040523d82523d6000602084013e610517565b606091505b505090508061055b576040517f08c379a000000000000000000000000000000000000000000000000000000000815260040161055290610b92565b60405180910390fd5b5050565b60006020528060005260406000206000915090505481565b6801158e460913d0000081565b600360009054906101000a900473ffffffffffffffffffffffffffffffffffffffff1681565b7f000000000000000000000000000000000000000000000000000000000000000081565b60015481565b600281815481106105e457600080fd5b906000526020600020016000915054906101000a900473ffffffffffffffffffffffffffffffffffffffff1681565b60008061061f8361064f565b90506000670de0b6b3a764000085836106389190610bb2565b6106429190610c3b565b9050809250505092915050565b6000808273ffffffffffffffffffffffffffffffffffffffff1663feaf968c6040518163ffffffff1660e01b815260040160a06040518083038186803b15801561069857600080fd5b505afa1580156106ac573d6000803e3d6000fd5b505050506040513d601f19601f820116820180604052508101906106d09190610cf9565b5050509150506402540be400816106e79190610d74565b915050919050565b828054828255906000526020600020908101928215610768579160200282015b828111156107675782518260006101000a81548173ffffffffffffffffffffffffffffffffffffffff021916908373ffffffffffffffffffffffffffffffffffffffff1602179055509160200191906001019061070f565b5b5090506107759190610779565b5090565b5b8082111561079257600081600090555060010161077a565b5090565b600080fd5b600073ffffffffffffffffffffffffffffffffffffffff82169050919050565b60006107c68261079b565b9050919050565b6107d6816107bb565b81146107e157600080fd5b50565b6000813590506107f3816107cd565b92915050565b60006020828403121561080f5761080e610796565b5b600061081d848285016107e4565b91505092915050565b6000819050919050565b61083981610826565b82525050565b60006020820190506108546000830184610830565b92915050565b6000819050919050565b600061087f61087a6108758461079b565b61085a565b61079b565b9050919050565b600061089182610864565b9050919050565b60006108a382610886565b9050919050565b6108b381610898565b82525050565b60006020820190506108ce60008301846108aa565b92915050565b6108dd816107bb565b82525050565b60006020820190506108f860008301846108d4565b92915050565b61090781610826565b811461091257600080fd5b50565b600081359050610924816108fe565b92915050565b6000602082840312156109405761093f610796565b5b600061094e84828501610915565b91505092915050565b600082825260208201905092915050565b7f4469646e27742073656e6420656e6f7567680000000000000000000000000000600082015250565b600061099e601283610957565b91506109a982610968565b602082019050919050565b600060208201905081810360008301526109cd81610991565b9050919050565b7f4e487b7100000000000000000000000000000000000000000000000000000000600052601160045260246000fd5b6000610a0e82610826565b9150610a1983610826565b9250827fffffffffffffffffffffffffffffffffffffffffffffffffffffffffffffffff03821115610a4e57610a4d6109d4565b5b828201905092915050565b7f4e487b7100000000000000000000000000000000000000000000000000000000600052603260045260246000fd5b6000610a9382610826565b91507fffffffffffffffffffffffffffffffffffffffffffffffffffffffffffffffff821415610ac657610ac56109d4565b5b600182019050919050565b7f4e487b7100000000000000000000000000000000000000000000000000000000600052604160045260246000fd5b600081905092915050565b50565b6000610b1b600083610b00565b9150610b2682610b0b565b600082019050919050565b6000610b3c82610b0e565b9150819050919050565b7f43616c6c206661696c6564000000000000000000000000000000000000000000600082015250565b6000610b7c600b83610957565b9150610b8782610b46565b602082019050919050565b60006020820190508181036000830152610bab81610b6f565b9050919050565b6000610bbd82610826565b9150610bc883610826565b9250817fffffffffffffffffffffffffffffffffffffffffffffffffffffffffffffffff0483118215151615610c0157610c006109d4565b5b828202905092915050565b7f4e487b7100000000000000000000000000000000000000000000000000000000600052601260045260246000fd5b6000610c4682610826565b9150610c5183610826565b925082610c6157610c60610c0c565b5b828204905092915050565b600069ffffffffffffffffffff82169050919050565b610c8b81610c6c565b8114610c9657600080fd5b50565b600081519050610ca881610c82565b92915050565b6000819050919050565b610cc181610cae565b8114610ccc57600080fd5b50565b600081519050610cde81610cb8565b92915050565b600081519050610cf3816108fe565b92915050565b600080600080600060a08688031215610d1557610d14610796565b5b6000610d2388828901610c99565b9550506020610d3488828901610ccf565b9450506040610d4588828901610ce4565b9350506060610d5688828901610ce4565b9250506080610d6788828901610c99565b9150509295509295909350565b6000610d7f82610cae565b9150610d8a83610cae565b9250827f7fffffffffffffffffffffffffffffffffffffffffffffffffffffffffffffff0482116000841360008413161615610dc957610dc86109d4565b5b817f80000000000000000000000000000000000000000000000000000000000000000583126000841260008413161615610e0657610e056109d4565b5b827f80000000000000000000000000000000000000000000000000000000000000000582126000841360008412161615610e4357610e426109d4565b5b827f7fffffffffffffffffffffffffffffffffffffffffffffffffffffffffffffff0582126000841260008412161615610e8057610e7f6109d4565b5b82820290509291505056fea2646970667358221220dca62383d55b343017c1dc806f90e0dc100cd35a9b0697e3392a91a7287de50b64736f6c63430008080033",
  "devdoc": {
    "kind": "dev",
    "methods": {},
    "version": 1
  },
  "userdoc": {
    "kind": "user",
    "methods": {},
    "version": 1
  },
  "storageLayout": {
    "storage": [
      {
        "astId": 373,
        "contract": "contracts/FundMe.sol:FundMe",
        "label": "addressToAmountFuned",
        "offset": 0,
        "slot": "0",
        "type": "t_mapping(t_address,t_uint256)"
      },
      {
        "astId": 375,
        "contract": "contracts/FundMe.sol:FundMe",
        "label": "number",
        "offset": 0,
        "slot": "1",
        "type": "t_uint256"
      },
      {
        "astId": 378,
        "contract": "contracts/FundMe.sol:FundMe",
        "label": "funders",
        "offset": 0,
        "slot": "2",
        "type": "t_array(t_address)dyn_storage"
      },
      {
        "astId": 383,
        "contract": "contracts/FundMe.sol:FundMe",
        "label": "priceFeed",
        "offset": 0,
        "slot": "3",
        "type": "t_contract(AggregatorV3Interface)356"
      }
    ],
    "types": {
      "t_address": {
        "encoding": "inplace",
        "label": "address",
        "numberOfBytes": "20"
      },
      "t_array(t_address)dyn_storage": {
        "base": "t_address",
        "encoding": "dynamic_array",
        "label": "address[]",
        "numberOfBytes": "32"
      },
      "t_contract(AggregatorV3Interface)356": {
        "encoding": "inplace",
        "label": "contract AggregatorV3Interface",
        "numberOfBytes": "20"
      },
      "t_mapping(t_address,t_uint256)": {
        "encoding": "mapping",
        "key": "t_address",
        "label": "mapping(address => uint256)",
        "numberOfBytes": "32",
        "value": "t_uint256"
      },
      "t_uint256": {
        "encoding": "inplace",
        "label": "uint256",
        "numberOfBytes": "32"
      }
    }
  }
}