{
  "address": "0xcce0de79Acb73fCAb1e7A38D05430dC7e861a2fc",
  "abi": [
    {
      "inputs": [
        {
          "internalType": "address",
          "name": "priceFeedAddress",
          "type": "address"
        }
      ],
      "stateMutability": "nonpayable",
      "type": "constructor"
    },
    {
      "inputs": [],
      "name": "NotOwner",
      "type": "error"
    },
    {
      "stateMutability": "payable",
      "type": "fallback"
    },
    {
      "inputs": [],
      "name": "MINIMUM_USD",
      "outputs": [
        {
          "internalType": "uint256",
          "name": "",
          "type": "uint256"
        }
      ],
      "stateMutability": "view",
      "type": "function"
    },
    {
      "inputs": [
        {
          "internalType": "address",
          "name": "",
          "type": "address"
        }
      ],
      "name": "addressToAmountFuned",
      "outputs": [
        {
          "internalType": "uint256",
          "name": "",
          "type": "uint256"
        }
      ],
      "stateMutability": "view",
      "type": "function"
    },
    {
      "inputs": [],
      "name": "cheapWithDraw",
      "outputs": [],
      "stateMutability": "payable",
      "type": "function"
    },
    {
      "inputs": [],
      "name": "fund",
      "outputs": [],
      "stateMutability": "payable",
      "type": "function"
    },
    {
      "inputs": [
        {
          "internalType": "uint256",
          "name": "",
          "type": "uint256"
        }
      ],
      "name": "funders",
      "outputs": [
        {
          "internalType": "address",
          "name": "",
          "type": "address"
        }
      ],
      "stateMutability": "view",
      "type": "function"
    },
    {
      "inputs": [],
      "name": "iowner",
      "outputs": [
        {
          "internalType": "address",
          "name": "",
          "type": "address"
        }
      ],
      "stateMutability": "view",
      "type": "function"
    },
    {
      "inputs": [],
      "name": "number",
      "outputs": [
        {
          "internalType": "uint256",
          "name": "",
          "type": "uint256"
        }
      ],
      "stateMutability": "view",
      "type": "function"
    },
    {
      "inputs": [],
      "name": "priceFeed",
      "outputs": [
        {
          "internalType": "contract AggregatorV3Interface",
          "name": "",
          "type": "address"
        }
      ],
      "stateMutability": "view",
      "type": "function"
    },
    {
      "inputs": [],
      "name": "withdraw",
      "outputs": [],
      "stateMutability": "nonpayable",
      "type": "function"
    },
    {
      "stateMutability": "payable",
      "type": "receive"
    }
  ],
  "transactionHash": "0x8c2a6fd869a0955c229eb941a3bdcb8e024a726cb6e1e51fff11e4f694d882a3",
  "args": [
    "0x694AA1769357215DE4FAC081bf1f309aDC325306"
  ],
  "numDeployments": 7,
  "solcInputHash": "aa78317c5baf466abcb5dd3f04752dff",
  "bytecode": "0x60a06040523480156200001157600080fd5b50604051620012f9380380620012f983398181016040528101906200003791906200011d565b3373ffffffffffffffffffffffffffffffffffffffff1660808173ffffffffffffffffffffffffffffffffffffffff168152505080600360006101000a81548173ffffffffffffffffffffffffffffffffffffffff021916908373ffffffffffffffffffffffffffffffffffffffff160217905550506200014f565b600080fd5b600073ffffffffffffffffffffffffffffffffffffffff82169050919050565b6000620000e582620000b8565b9050919050565b620000f781620000d8565b81146200010357600080fd5b50565b6000815190506200011781620000ec565b92915050565b600060208284031215620001365762000135620000b3565b5b6000620001468482850162000106565b91505092915050565b6080516111806200017960003960008181610330015281816105c101526105eb01526111806000f3fe60806040526004361061008a5760003560e01c806375fb15d01161005957806375fb15d01461014d5780638381f58a14610178578063b60d4288146101a3578063cf43405f146101ad578063dc0d3dff146101b757610099565b80633ccfd60b146100a357806345e92b4d146100ba5780636b69a592146100f7578063741bef1a1461012257610099565b36610099576100976101f4565b005b6100a16101f4565b005b3480156100af57600080fd5b506100b861032e565b005b3480156100c657600080fd5b506100e160048036038101906100dc9190610ab8565b610574565b6040516100ee9190610afe565b60405180910390f35b34801561010357600080fd5b5061010c61058c565b6040516101199190610afe565b60405180910390f35b34801561012e57600080fd5b50610137610599565b6040516101449190610b78565b60405180910390f35b34801561015957600080fd5b506101626105bf565b60405161016f9190610ba2565b60405180910390f35b34801561018457600080fd5b5061018d6105e3565b60405161019a9190610afe565b60405180910390f35b6101ab6101f4565b005b6101b56105e9565b005b3480156101c357600080fd5b506101de60048036038101906101d99190610be9565b610893565b6040516101eb9190610ba2565b60405180910390f35b6801158e460913d00000610233600360009054906101000a900473ffffffffffffffffffffffffffffffffffffffff16346108d290919063ffffffff16565b1015610274576040517f08c379a000000000000000000000000000000000000000000000000000000000815260040161026b90610c73565b60405180910390fd5b6002339080600181540180825580915050600190039060005260206000200160009091909190916101000a81548173ffffffffffffffffffffffffffffffffffffffff021916908373ffffffffffffffffffffffffffffffffffffffff160217905550346000803373ffffffffffffffffffffffffffffffffffffffff1673ffffffffffffffffffffffffffffffffffffffff16815260200190815260200160002060008282546103259190610cc2565b92505081905550565b7f000000000000000000000000000000000000000000000000000000000000000073ffffffffffffffffffffffffffffffffffffffff163373ffffffffffffffffffffffffffffffffffffffff16146103b3576040517f30cd747100000000000000000000000000000000000000000000000000000000815260040160405180910390fd5b6000600280549050905060005b81811015610463576000600282815481106103de576103dd610d18565b5b9060005260206000200160009054906101000a900473ffffffffffffffffffffffffffffffffffffffff16905060008060008373ffffffffffffffffffffffffffffffffffffffff1673ffffffffffffffffffffffffffffffffffffffff1681526020019081526020016000208190555050808061045b90610d47565b9150506103c0565b50600067ffffffffffffffff81111561047f5761047e610d90565b5b6040519080825280602002602001820160405280156104ad5781602001602082028036833780820191505090505b50600290805190602001906104c39291906109ae565b5060003373ffffffffffffffffffffffffffffffffffffffff16476040516104ea90610df0565b60006040518083038185875af1925050503d8060008114610527576040519150601f19603f3d011682016040523d82523d6000602084013e61052c565b606091505b5050905080610570576040517f08c379a000000000000000000000000000000000000000000000000000000000815260040161056790610e51565b60405180910390fd5b5050565b60006020528060005260406000206000915090505481565b6801158e460913d0000081565b600360009054906101000a900473ffffffffffffffffffffffffffffffffffffffff1681565b7f000000000000000000000000000000000000000000000000000000000000000081565b60015481565b7f000000000000000000000000000000000000000000000000000000000000000073ffffffffffffffffffffffffffffffffffffffff163373ffffffffffffffffffffffffffffffffffffffff161461066e576040517f30cd747100000000000000000000000000000000000000000000000000000000815260040160405180910390fd5b600060028054806020026020016040519081016040528092919081815260200182805480156106f257602002820191906000526020600020905b8160009054906101000a900473ffffffffffffffffffffffffffffffffffffffff1673ffffffffffffffffffffffffffffffffffffffff16815260200190600101908083116106a8575b5050505050905060008151905060005b8181101561078157600083828151811061071f5761071e610d18565b5b6020026020010151905060008060008373ffffffffffffffffffffffffffffffffffffffff1673ffffffffffffffffffffffffffffffffffffffff1681526020019081526020016000208190555050808061077990610d47565b915050610702565b50600067ffffffffffffffff81111561079d5761079c610d90565b5b6040519080825280602002602001820160405280156107cb5781602001602082028036833780820191505090505b50600290805190602001906107e19291906109ae565b5060003373ffffffffffffffffffffffffffffffffffffffff164760405161080890610df0565b60006040518083038185875af1925050503d8060008114610845576040519150601f19603f3d011682016040523d82523d6000602084013e61084a565b606091505b505090508061088e576040517f08c379a000000000000000000000000000000000000000000000000000000000815260040161088590610e51565b60405180910390fd5b505050565b600281815481106108a357600080fd5b906000526020600020016000915054906101000a900473ffffffffffffffffffffffffffffffffffffffff1681565b6000806108de8361090e565b90506000670de0b6b3a764000085836108f79190610e71565b6109019190610efa565b9050809250505092915050565b6000808273ffffffffffffffffffffffffffffffffffffffff1663feaf968c6040518163ffffffff1660e01b815260040160a06040518083038186803b15801561095757600080fd5b505afa15801561096b573d6000803e3d6000fd5b505050506040513d601f19601f8201168201806040525081019061098f9190610fb8565b5050509150506402540be400816109a69190611033565b915050919050565b828054828255906000526020600020908101928215610a27579160200282015b82811115610a265782518260006101000a81548173ffffffffffffffffffffffffffffffffffffffff021916908373ffffffffffffffffffffffffffffffffffffffff160217905550916020019190600101906109ce565b5b509050610a349190610a38565b5090565b5b80821115610a51576000816000905550600101610a39565b5090565b600080fd5b600073ffffffffffffffffffffffffffffffffffffffff82169050919050565b6000610a8582610a5a565b9050919050565b610a9581610a7a565b8114610aa057600080fd5b50565b600081359050610ab281610a8c565b92915050565b600060208284031215610ace57610acd610a55565b5b6000610adc84828501610aa3565b91505092915050565b6000819050919050565b610af881610ae5565b82525050565b6000602082019050610b136000830184610aef565b92915050565b6000819050919050565b6000610b3e610b39610b3484610a5a565b610b19565b610a5a565b9050919050565b6000610b5082610b23565b9050919050565b6000610b6282610b45565b9050919050565b610b7281610b57565b82525050565b6000602082019050610b8d6000830184610b69565b92915050565b610b9c81610a7a565b82525050565b6000602082019050610bb76000830184610b93565b92915050565b610bc681610ae5565b8114610bd157600080fd5b50565b600081359050610be381610bbd565b92915050565b600060208284031215610bff57610bfe610a55565b5b6000610c0d84828501610bd4565b91505092915050565b600082825260208201905092915050565b7f4469646e27742073656e6420656e6f7567680000000000000000000000000000600082015250565b6000610c5d601283610c16565b9150610c6882610c27565b602082019050919050565b60006020820190508181036000830152610c8c81610c50565b9050919050565b7f4e487b7100000000000000000000000000000000000000000000000000000000600052601160045260246000fd5b6000610ccd82610ae5565b9150610cd883610ae5565b9250827fffffffffffffffffffffffffffffffffffffffffffffffffffffffffffffffff03821115610d0d57610d0c610c93565b5b828201905092915050565b7f4e487b7100000000000000000000000000000000000000000000000000000000600052603260045260246000fd5b6000610d5282610ae5565b91507fffffffffffffffffffffffffffffffffffffffffffffffffffffffffffffffff821415610d8557610d84610c93565b5b600182019050919050565b7f4e487b7100000000000000000000000000000000000000000000000000000000600052604160045260246000fd5b600081905092915050565b50565b6000610dda600083610dbf565b9150610de582610dca565b600082019050919050565b6000610dfb82610dcd565b9150819050919050565b7f43616c6c206661696c6564000000000000000000000000000000000000000000600082015250565b6000610e3b600b83610c16565b9150610e4682610e05565b602082019050919050565b60006020820190508181036000830152610e6a81610e2e565b9050919050565b6000610e7c82610ae5565b9150610e8783610ae5565b9250817fffffffffffffffffffffffffffffffffffffffffffffffffffffffffffffffff0483118215151615610ec057610ebf610c93565b5b828202905092915050565b7f4e487b7100000000000000000000000000000000000000000000000000000000600052601260045260246000fd5b6000610f0582610ae5565b9150610f1083610ae5565b925082610f2057610f1f610ecb565b5b828204905092915050565b600069ffffffffffffffffffff82169050919050565b610f4a81610f2b565b8114610f5557600080fd5b50565b600081519050610f6781610f41565b92915050565b6000819050919050565b610f8081610f6d565b8114610f8b57600080fd5b50565b600081519050610f9d81610f77565b92915050565b600081519050610fb281610bbd565b92915050565b600080600080600060a08688031215610fd457610fd3610a55565b5b6000610fe288828901610f58565b9550506020610ff388828901610f8e565b945050604061100488828901610fa3565b935050606061101588828901610fa3565b925050608061102688828901610f58565b9150509295509295909350565b600061103e82610f6d565b915061104983610f6d565b9250827f7fffffffffffffffffffffffffffffffffffffffffffffffffffffffffffffff048211600084136000841316161561108857611087610c93565b5b817f800000000000000000000000000000000000000000000000000000000000000005831260008412600084131616156110c5576110c4610c93565b5b827f8000000000000000000000000000000000000000000000000000000000000000058212600084136000841216161561110257611101610c93565b5b827f7fffffffffffffffffffffffffffffffffffffffffffffffffffffffffffffff058212600084126000841216161561113f5761113e610c93565b5b82820290509291505056fea2646970667358221220ac968facc68e2f4b68b9de51121e5882d7523073ae3c8eb19ee9f7538857b30764736f6c63430008090033",
  "devdoc": {
    "kind": "dev",
    "methods": {},
    "version": 1
  },
  "userdoc": {
    "kind": "user",
    "methods": {},
    "version": 1
  },
  "storageLayout": {
    "storage": [
      {
        "astId": 62,
        "contract": "contracts/FundMe.sol:FundMe",
        "label": "addressToAmountFuned",
        "offset": 0,
        "slot": "0",
        "type": "t_mapping(t_address,t_uint256)"
      },
      {
        "astId": 64,
        "contract": "contracts/FundMe.sol:FundMe",
        "label": "number",
        "offset": 0,
        "slot": "1",
        "type": "t_uint256"
      },
      {
        "astId": 67,
        "contract": "contracts/FundMe.sol:FundMe",
        "label": "funders",
        "offset": 0,
        "slot": "2",
        "type": "t_array(t_address)dyn_storage"
      },
      {
        "astId": 72,
        "contract": "contracts/FundMe.sol:FundMe",
        "label": "priceFeed",
        "offset": 0,
        "slot": "3",
        "type": "t_contract(AggregatorV3Interface)45"
      }
    ],
    "types": {
      "t_address": {
        "encoding": "inplace",
        "label": "address",
        "numberOfBytes": "20"
      },
      "t_array(t_address)dyn_storage": {
        "base": "t_address",
        "encoding": "dynamic_array",
        "label": "address[]",
        "numberOfBytes": "32"
      },
      "t_contract(AggregatorV3Interface)45": {
        "encoding": "inplace",
        "label": "contract AggregatorV3Interface",
        "numberOfBytes": "20"
      },
      "t_mapping(t_address,t_uint256)": {
        "encoding": "mapping",
        "key": "t_address",
        "label": "mapping(address => uint256)",
        "numberOfBytes": "32",
        "value": "t_uint256"
      },
      "t_uint256": {
        "encoding": "inplace",
        "label": "uint256",
        "numberOfBytes": "32"
      }
    }
  }
}